{
  "_format": "hh-sol-artifact-1",
  "contractName": "Company",
  "sourceName": "contracts/Company.sol",
  "abi": [
    {
      "inputs": [],
      "name": "EmployeeAlreadyExists",
      "type": "error"
    },
    {
      "inputs": [],
      "name": "InsufficientFunds",
      "type": "error"
    },
    {
      "anonymous": false,
      "inputs": [
        {
          "indexed": true,
          "internalType": "address",
          "name": "company",
          "type": "address"
        }
      ],
      "name": "CompanyPensionTransferFailed",
      "type": "event"
    },
    {
      "anonymous": false,
      "inputs": [
        {
          "indexed": true,
          "internalType": "address",
          "name": "company",
          "type": "address"
        },
        {
          "indexed": false,
          "internalType": "uint256",
          "name": "amount",
          "type": "uint256"
        }
      ],
      "name": "CompanyPensionTransferSucceeded",
      "type": "event"
    },
    {
      "anonymous": false,
      "inputs": [
        {
          "indexed": true,
          "internalType": "uint256",
          "name": "proposalId",
          "type": "uint256"
        },
        {
          "indexed": false,
          "internalType": "bool",
          "name": "success",
          "type": "bool"
        },
        {
          "indexed": false,
          "internalType": "uint256",
          "name": "amount",
          "type": "uint256"
        }
      ],
      "name": "CryptoProposalCompleted",
      "type": "event"
    },
    {
      "anonymous": false,
      "inputs": [
        {
          "indexed": true,
          "internalType": "uint256",
          "name": "proposalId",
          "type": "uint256"
        },
        {
          "indexed": false,
          "internalType": "string",
          "name": "description",
          "type": "string"
        },
        {
          "indexed": false,
          "internalType": "uint256",
          "name": "value",
          "type": "uint256"
        },
        {
          "indexed": false,
          "internalType": "address",
          "name": "currencyAddress",
          "type": "address"
        }
      ],
      "name": "CryptoProposalCreated",
      "type": "event"
    },
    {
      "anonymous": false,
      "inputs": [
        {
          "indexed": true,
          "internalType": "uint256",
          "name": "proposalId",
          "type": "uint256"
        },
        {
          "indexed": true,
          "internalType": "address",
          "name": "voter",
          "type": "address"
        },
        {
          "indexed": false,
          "internalType": "bool",
          "name": "vote",
          "type": "bool"
        }
      ],
      "name": "CryptoProposalVoted",
      "type": "event"
    },
    {
      "anonymous": false,
      "inputs": [
        {
          "indexed": false,
          "internalType": "uint8",
          "name": "version",
          "type": "uint8"
        }
      ],
      "name": "Initialized",
      "type": "event"
    },
    {
      "anonymous": false,
      "inputs": [
        {
          "indexed": true,
          "internalType": "address",
          "name": "previousOwner",
          "type": "address"
        },
        {
          "indexed": true,
          "internalType": "address",
          "name": "newOwner",
          "type": "address"
        }
      ],
      "name": "OwnershipTransferred",
      "type": "event"
    },
    {
      "anonymous": false,
      "inputs": [
        {
          "indexed": true,
          "internalType": "uint256",
          "name": "proposalId",
          "type": "uint256"
        },
        {
          "indexed": false,
          "internalType": "bool",
          "name": "success",
          "type": "bool"
        },
        {
          "indexed": false,
          "internalType": "uint256",
          "name": "amount",
          "type": "uint256"
        }
      ],
      "name": "W2wProposalCompleted",
      "type": "event"
    },
    {
      "anonymous": false,
      "inputs": [
        {
          "indexed": true,
          "internalType": "uint256",
          "name": "proposalId",
          "type": "uint256"
        },
        {
          "indexed": false,
          "internalType": "string",
          "name": "description",
          "type": "string"
        },
        {
          "indexed": false,
          "internalType": "uint256",
          "name": "value",
          "type": "uint256"
        },
        {
          "indexed": false,
          "internalType": "address",
          "name": "targetAddress",
          "type": "address"
        }
      ],
      "name": "W2wProposalCreated",
      "type": "event"
    },
    {
      "anonymous": false,
      "inputs": [
        {
          "indexed": true,
          "internalType": "uint256",
          "name": "proposalId",
          "type": "uint256"
        },
        {
          "indexed": true,
          "internalType": "address",
          "name": "voter",
          "type": "address"
        },
        {
          "indexed": false,
          "internalType": "bool",
          "name": "vote",
          "type": "bool"
        }
      ],
      "name": "W2wProposalVoted",
      "type": "event"
    },
    {
      "inputs": [
        {
          "internalType": "address",
          "name": "_employeeAddress",
          "type": "address"
        },
        {
          "internalType": "uint256",
          "name": "_pensionStartDate",
          "type": "uint256"
        },
        {
          "internalType": "uint256",
          "name": "_pensionDuration",
          "type": "uint256"
        },
        {
          "internalType": "uint256",
          "name": "_monthyAmount",
          "type": "uint256"
        },
        {
          "internalType": "uint256",
          "name": "_employeeJoiningDate",
          "type": "uint256"
        },
        {
          "internalType": "uint256",
          "name": "_employeeLeavingDate",
          "type": "uint256"
        },
        {
          "internalType": "uint256",
          "name": "_minimumServiceRequired",
          "type": "uint256"
        }
      ],
      "name": "addEmployee",
      "outputs": [],
      "stateMutability": "nonpayable",
      "type": "function"
    },
    {
      "inputs": [
        {
          "internalType": "address[]",
          "name": "_employeeAddresses",
          "type": "address[]"
        },
        {
          "internalType": "uint256[]",
          "name": "_pensionStartDates",
          "type": "uint256[]"
        },
        {
          "internalType": "uint256[]",
          "name": "_pensionDurations",
          "type": "uint256[]"
        },
        {
          "internalType": "uint256[]",
          "name": "_monthyAmounts",
          "type": "uint256[]"
        },
        {
          "internalType": "uint256[]",
          "name": "_employeeJoiningDates",
          "type": "uint256[]"
        },
        {
          "internalType": "uint256[]",
          "name": "_employeeLeavingDates",
          "type": "uint256[]"
        },
        {
          "internalType": "uint256[]",
          "name": "_minimumServiceRequireds",
          "type": "uint256[]"
        }
      ],
      "name": "addEmployees",
      "outputs": [],
      "stateMutability": "nonpayable",
      "type": "function"
    },
    {
      "inputs": [
        {
          "internalType": "uint256",
          "name": "proposalIndex",
          "type": "uint256"
        }
      ],
      "name": "approveCryptoProposal",
      "outputs": [],
      "stateMutability": "nonpayable",
      "type": "function"
    },
    {
      "inputs": [
        {
          "internalType": "uint256",
          "name": "proposalIndex",
          "type": "uint256"
        }
      ],
      "name": "approveW2wProposal",
      "outputs": [],
      "stateMutability": "nonpayable",
      "type": "function"
    },
    {
      "inputs": [
        {
          "internalType": "string",
          "name": "_name",
          "type": "string"
        }
      ],
      "name": "changeName",
      "outputs": [],
      "stateMutability": "nonpayable",
      "type": "function"
    },
    {
      "inputs": [
        {
          "internalType": "string",
          "name": "_title",
          "type": "string"
        },
        {
          "internalType": "string",
          "name": "_description",
          "type": "string"
        },
        {
          "internalType": "uint256",
          "name": "_deadline",
          "type": "uint256"
        },
        {
          "internalType": "uint256",
          "name": "_value",
          "type": "uint256"
        },
        {
          "internalType": "address",
          "name": "_currencyAddress",
          "type": "address"
        }
      ],
      "name": "createCryptoProposal",
      "outputs": [],
      "stateMutability": "nonpayable",
      "type": "function"
    },
    {
      "inputs": [
        {
          "internalType": "string",
          "name": "_title",
          "type": "string"
        },
        {
          "internalType": "string",
          "name": "_description",
          "type": "string"
        },
        {
          "internalType": "uint256",
          "name": "_deadline",
          "type": "uint256"
        },
        {
          "internalType": "uint256",
          "name": "_value",
          "type": "uint256"
        },
        {
          "internalType": "address",
          "name": "_targetAddress",
          "type": "address"
        }
      ],
      "name": "createW2wProposal",
      "outputs": [],
      "stateMutability": "nonpayable",
      "type": "function"
    },
    {
      "inputs": [
        {
          "internalType": "uint256",
          "name": "",
          "type": "uint256"
        }
      ],
      "name": "employeeAddresses",
      "outputs": [
        {
          "internalType": "address payable",
          "name": "",
          "type": "address"
        }
      ],
      "stateMutability": "view",
      "type": "function"
    },
    {
      "inputs": [
        {
          "internalType": "address",
          "name": "",
          "type": "address"
        }
      ],
      "name": "employees",
      "outputs": [
        {
          "internalType": "uint256",
          "name": "pensionStartDate",
          "type": "uint256"
        },
        {
          "internalType": "uint256",
          "name": "pensionDuration",
          "type": "uint256"
        },
        {
          "internalType": "uint256",
          "name": "monthyAmount",
          "type": "uint256"
        },
        {
          "internalType": "uint256",
          "name": "employeeJoiningDate",
          "type": "uint256"
        },
        {
          "internalType": "uint256",
          "name": "employeeLeavingDate",
          "type": "uint256"
        },
        {
          "internalType": "uint256",
          "name": "minimumServiceRequired",
          "type": "uint256"
        }
      ],
      "stateMutability": "view",
      "type": "function"
    },
    {
      "inputs": [
        {
          "internalType": "uint256",
          "name": "proposalIndex",
          "type": "uint256"
        }
      ],
      "name": "finalizeCryptoProposal",
      "outputs": [],
      "stateMutability": "nonpayable",
      "type": "function"
    },
    {
      "inputs": [
        {
          "internalType": "uint256",
          "name": "proposalIndex",
          "type": "uint256"
        }
      ],
      "name": "finalizeW2wProposal",
      "outputs": [],
      "stateMutability": "nonpayable",
      "type": "function"
    },
    {
      "inputs": [
        {
          "internalType": "address",
          "name": "_employeeAddress",
          "type": "address"
        }
      ],
      "name": "getEmployee",
      "outputs": [
        {
          "components": [
            {
              "internalType": "uint256",
              "name": "pensionStartDate",
              "type": "uint256"
            },
            {
              "internalType": "uint256",
              "name": "pensionDuration",
              "type": "uint256"
            },
            {
              "internalType": "uint256",
              "name": "monthyAmount",
              "type": "uint256"
            },
            {
              "internalType": "uint256",
              "name": "employeeJoiningDate",
              "type": "uint256"
            },
            {
              "internalType": "uint256",
              "name": "employeeLeavingDate",
              "type": "uint256"
            },
            {
              "internalType": "uint256",
              "name": "minimumServiceRequired",
              "type": "uint256"
            }
          ],
          "internalType": "struct Employee",
          "name": "",
          "type": "tuple"
        }
      ],
      "stateMutability": "view",
      "type": "function"
    },
    {
      "inputs": [],
      "name": "getEmployees",
      "outputs": [
        {
          "components": [
            {
              "internalType": "uint256",
              "name": "pensionStartDate",
              "type": "uint256"
            },
            {
              "internalType": "uint256",
              "name": "pensionDuration",
              "type": "uint256"
            },
            {
              "internalType": "uint256",
              "name": "monthyAmount",
              "type": "uint256"
            },
            {
              "internalType": "uint256",
              "name": "employeeJoiningDate",
              "type": "uint256"
            },
            {
              "internalType": "uint256",
              "name": "employeeLeavingDate",
              "type": "uint256"
            },
            {
              "internalType": "uint256",
              "name": "minimumServiceRequired",
              "type": "uint256"
            }
          ],
          "internalType": "struct Employee[]",
          "name": "",
          "type": "tuple[]"
        }
      ],
      "stateMutability": "view",
      "type": "function"
    },
    {
      "inputs": [
        {
          "internalType": "address",
          "name": "_owner",
          "type": "address"
        },
        {
          "internalType": "string",
          "name": "_name",
          "type": "string"
        }
      ],
      "name": "initialize",
      "outputs": [],
      "stateMutability": "payable",
      "type": "function"
    },
    {
      "inputs": [
        {
          "internalType": "address",
          "name": "addressToFind",
          "type": "address"
        }
      ],
      "name": "isAddressInEmployee",
      "outputs": [
        {
          "internalType": "bool",
          "name": "",
          "type": "bool"
        }
      ],
      "stateMutability": "view",
      "type": "function"
    },
    {
      "inputs": [],
      "name": "name",
      "outputs": [
        {
          "internalType": "string",
          "name": "",
          "type": "string"
        }
      ],
      "stateMutability": "view",
      "type": "function"
    },
    {
      "inputs": [],
      "name": "owner",
      "outputs": [
        {
          "internalType": "address",
          "name": "",
          "type": "address"
        }
      ],
      "stateMutability": "view",
      "type": "function"
    },
    {
      "inputs": [],
      "name": "pensionCounter",
      "outputs": [
        {
          "internalType": "uint256",
          "name": "",
          "type": "uint256"
        }
      ],
      "stateMutability": "view",
      "type": "function"
    },
    {
      "inputs": [],
      "name": "renounceOwnership",
      "outputs": [],
      "stateMutability": "nonpayable",
      "type": "function"
    },
    {
      "inputs": [],
      "name": "swapRouter",
      "outputs": [
        {
          "internalType": "contract ISwapRouter",
          "name": "",
          "type": "address"
        }
      ],
      "stateMutability": "view",
      "type": "function"
    },
    {
      "inputs": [],
      "name": "transferFundsToEmployees",
      "outputs": [],
      "stateMutability": "nonpayable",
      "type": "function"
    },
    {
      "inputs": [
        {
          "internalType": "address",
          "name": "newOwner",
          "type": "address"
        }
      ],
      "name": "transferOwnership",
      "outputs": [],
      "stateMutability": "nonpayable",
      "type": "function"
    },
    {
      "inputs": [
        {
          "internalType": "address",
          "name": "_employeeAddress",
          "type": "address"
        },
        {
          "internalType": "uint256",
          "name": "_pensionStartDate",
          "type": "uint256"
        },
        {
          "internalType": "uint256",
          "name": "_pensionDuration",
          "type": "uint256"
        },
        {
          "internalType": "uint256",
          "name": "_monthyAmount",
          "type": "uint256"
        },
        {
          "internalType": "uint256",
          "name": "_employeeJoiningDate",
          "type": "uint256"
        },
        {
          "internalType": "uint256",
          "name": "_employeeLeavingDate",
          "type": "uint256"
        },
        {
          "internalType": "uint256",
          "name": "_minimumServiceRequired",
          "type": "uint256"
        }
      ],
      "name": "updateEmployee",
      "outputs": [],
      "stateMutability": "nonpayable",
      "type": "function"
    }
  ],
  "bytecode": "0x608060405234801561001057600080fd5b50612f79806100206000396000f3fe60806040526004361061013f5760003560e01c806382f778a1116100b6578063e3f106931161006f578063e3f1069314610436578063e826c8ac1461045f578063f2fde38b14610488578063f399e22e146104b1578063f7e922fd146104cd578063fd763dbb146104f85761013f565b806382f778a1146103355780638da5cb5b1461034c578063c31c9c0714610377578063c3675a19146103a2578063d0678947146103cb578063db3cbd4f1461040d5761013f565b80634152772011610108578063415277201461023b5780634abefa36146102645780635353a2d81461028f57806371232c1a146102b8578063715018a6146102e15780637521720b146102f85761013f565b80626e430a1461014457806306fdde031461016d5780631fdf7fc91461019857806329e38391146101c157806332648e09146101fe575b600080fd5b34801561015057600080fd5b5061016b60048036038101906101669190612221565b610521565b005b34801561017957600080fd5b506101826107e7565b60405161018f919061240f565b60405180910390f35b3480156101a457600080fd5b506101bf60048036038101906101ba9190612431565b610875565b005b3480156101cd57600080fd5b506101e860048036038101906101e3919061245e565b610961565b6040516101f591906124a6565b60405180910390f35b34801561020a57600080fd5b506102256004803603810190610220919061245e565b610a10565b604051610232919061254b565b60405180910390f35b34801561024757600080fd5b50610262600480360381019061025d9190612431565b610aad565b005b34801561027057600080fd5b50610279610b2a565b6040516102869190612690565b60405180910390f35b34801561029b57600080fd5b506102b660048036038101906102b19190612767565b610c9e565b005b3480156102c457600080fd5b506102df60048036038101906102da91906127b0565b610cc0565b005b3480156102ed57600080fd5b506102f6610dab565b005b34801561030457600080fd5b5061031f600480360381019061031a9190612431565b610dbf565b60405161032c9190612884565b60405180910390f35b34801561034157600080fd5b5061034a610dfe565b005b34801561035857600080fd5b50610361611408565b60405161036e91906128ae565b60405180910390f35b34801561038357600080fd5b5061038c611432565b6040516103999190612928565b60405180910390f35b3480156103ae57600080fd5b506103c960048036038101906103c49190612431565b611458565b005b3480156103d757600080fd5b506103f260048036038101906103ed919061245e565b611573565b60405161040496959493929190612952565b60405180910390f35b34801561041957600080fd5b50610434600480360381019061042f91906129b3565b6115af565b005b34801561044257600080fd5b5061045d60048036038101906104589190612431565b61166b565b005b34801561046b57600080fd5b50610486600480360381019061048191906129b3565b611786565b005b34801561049457600080fd5b506104af60048036038101906104aa919061245e565b611922565b005b6104cb60048036038101906104c69190612a55565b6119a6565b005b3480156104d957600080fd5b506104e2611b6a565b6040516104ef9190612ab1565b60405180910390f35b34801561050457600080fd5b5061051f600480360381019061051a91906127b0565b611b70565b005b610529611c5b565b60005b87518110156105df576000606660008a848151811061054e5761054d612acc565b5b602002602001015173ffffffffffffffffffffffffffffffffffffffff1673ffffffffffffffffffffffffffffffffffffffff1681526020019081526020016000206003015411156105cc576040517f45c167f400000000000000000000000000000000000000000000000000000000815260040160405180910390fd5b80806105d790612b2a565b91505061052c565b5060005b87518110156107dd57606788828151811061060157610600612acc565b5b60200260200101519080600181540180825580915050600190039060005260206000200160009091909190916101000a81548173ffffffffffffffffffffffffffffffffffffffff021916908373ffffffffffffffffffffffffffffffffffffffff1602179055506040518060c0016040528088838151811061068757610686612acc565b5b602002602001015181526020018783815181106106a7576106a6612acc565b5b602002602001015181526020018683815181106106c7576106c6612acc565b5b602002602001015181526020018583815181106106e7576106e6612acc565b5b6020026020010151815260200184838151811061070757610706612acc565b5b6020026020010151815260200183838151811061072757610726612acc565b5b6020026020010151815250606660008a848151811061074957610748612acc565b5b602002602001015173ffffffffffffffffffffffffffffffffffffffff1673ffffffffffffffffffffffffffffffffffffffff168152602001908152602001600020600082015181600001556020820151816001015560408201518160020155606082015181600301556080820151816004015560a0820151816005015590505080806107d590612b2a565b9150506105e3565b5050505050505050565b606580546107f490612ba2565b80601f016020809104026020016040519081016040528092919081815260200182805461082090612ba2565b801561086d5780601f106108425761010080835404028352916020019161086d565b820191906000526020600020905b81548152906001019060200180831161085057829003601f168201915b505050505081565b61087d611c5b565b6000606b6000838152602001908152602001600020905060026067805490506108a69190612c03565b8160050154116108b557600080fd5b8060040160149054906101000a900460ff16156108d157600080fd5b8060040160009054906101000a900473ffffffffffffffffffffffffffffffffffffffff1673ffffffffffffffffffffffffffffffffffffffff166108fc82600301549081150290604051600060405180830381858888f1935050505015801561093f573d6000803e3d6000fd5b5060018160040160146101000a81548160ff0219169083151502179055505050565b600080600090505b606780549050811015610a05578273ffffffffffffffffffffffffffffffffffffffff16606782815481106109a1576109a0612acc565b5b9060005260206000200160009054906101000a900473ffffffffffffffffffffffffffffffffffffffff1673ffffffffffffffffffffffffffffffffffffffff1614156109f2576001915050610a0b565b80806109fd90612b2a565b915050610969565b50600090505b919050565b610a18611e84565b610a20611c5b565b606660008373ffffffffffffffffffffffffffffffffffffffff1673ffffffffffffffffffffffffffffffffffffffff1681526020019081526020016000206040518060c001604052908160008201548152602001600182015481526020016002820154815260200160038201548152602001600482015481526020016005820154815250509050919050565b610ab5611c5b565b60006069600083815260200190815260200160002090506002606780549050610ade9190612c03565b816005015411610aed57600080fd5b8060040160149054906101000a900460ff1615610b0957600080fd5b60018160040160146101000a81548160ff0219169083151502179055505050565b6060610b34611c5b565b600060678054905067ffffffffffffffff811115610b5557610b54611f87565b5b604051908082528060200260200182016040528015610b8e57816020015b610b7b611e84565b815260200190600190039081610b735790505b50905060005b606780549050811015610c96576066600060678381548110610bb957610bb8612acc565b5b9060005260206000200160009054906101000a900473ffffffffffffffffffffffffffffffffffffffff1673ffffffffffffffffffffffffffffffffffffffff1673ffffffffffffffffffffffffffffffffffffffff1681526020019081526020016000206040518060c00160405290816000820154815260200160018201548152602001600282015481526020016003820154815260200160048201548152602001600582015481525050828281518110610c7857610c77612acc565b5b60200260200101819052508080610c8e90612b2a565b915050610b94565b508091505090565b610ca6611c5b565b8060659080519060200190610cbc929190611eba565b5050565b610cc8611c5b565b60006069600060686000815480929190610ce190612b2a565b919050558152602001908152602001600020905085816000019080519060200190610d0d929190611eba565b5084816001019080519060200190610d26929190611eba565b50838160020181905550828160030181905550818160040160006101000a81548173ffffffffffffffffffffffffffffffffffffffff021916908373ffffffffffffffffffffffffffffffffffffffff16021790555060008160040160146101000a81548160ff02191690831515021790555060008160050181905550505050505050565b610db3611c5b565b610dbd6000611cd9565b565b60678181548110610dcf57600080fd5b906000526020600020016000915054906101000a900473ffffffffffffffffffffffffffffffffffffffff1681565b60008062281dc0905080606c54610e159190612c34565b42106114045760005b60678054905081101561105f576066600060678381548110610e4357610e42612acc565b5b9060005260206000200160009054906101000a900473ffffffffffffffffffffffffffffffffffffffff1673ffffffffffffffffffffffffffffffffffffffff1673ffffffffffffffffffffffffffffffffffffffff168152602001908152602001600020600501546066600060678481548110610ec457610ec3612acc565b5b9060005260206000200160009054906101000a900473ffffffffffffffffffffffffffffffffffffffff1673ffffffffffffffffffffffffffffffffffffffff1673ffffffffffffffffffffffffffffffffffffffff168152602001908152602001600020600301546066600060678581548110610f4557610f44612acc565b5b9060005260206000200160009054906101000a900473ffffffffffffffffffffffffffffffffffffffff1673ffffffffffffffffffffffffffffffffffffffff1673ffffffffffffffffffffffffffffffffffffffff16815260200190815260200160002060040154610fb89190612c8a565b1061104c576066600060678381548110610fd557610fd4612acc565b5b9060005260206000200160009054906101000a900473ffffffffffffffffffffffffffffffffffffffff1673ffffffffffffffffffffffffffffffffffffffff1673ffffffffffffffffffffffffffffffffffffffff16815260200190815260200160002060020154836110499190612c34565b92505b808061105790612b2a565b915050610e1e565b50814710156110dd573073ffffffffffffffffffffffffffffffffffffffff167f64acc7be4af62d3ff4a1793bb366bd5a36bf5c99de64b0929eccaf79616477a960405160405180910390a26040517f356680b700000000000000000000000000000000000000000000000000000000815260040160405180910390fd5b60005b60678054905081101561139857606660006067838154811061110557611104612acc565b5b9060005260206000200160009054906101000a900473ffffffffffffffffffffffffffffffffffffffff1673ffffffffffffffffffffffffffffffffffffffff1673ffffffffffffffffffffffffffffffffffffffff16815260200190815260200160002060050154606660006067848154811061118657611185612acc565b5b9060005260206000200160009054906101000a900473ffffffffffffffffffffffffffffffffffffffff1673ffffffffffffffffffffffffffffffffffffffff1673ffffffffffffffffffffffffffffffffffffffff16815260200190815260200160002060030154606660006067858154811061120757611206612acc565b5b9060005260206000200160009054906101000a900473ffffffffffffffffffffffffffffffffffffffff1673ffffffffffffffffffffffffffffffffffffffff1673ffffffffffffffffffffffffffffffffffffffff1681526020019081526020016000206004015461127a9190612c8a565b10611385576067818154811061129357611292612acc565b5b9060005260206000200160009054906101000a900473ffffffffffffffffffffffffffffffffffffffff1673ffffffffffffffffffffffffffffffffffffffff166108fc60666000606785815481106112ef576112ee612acc565b5b9060005260206000200160009054906101000a900473ffffffffffffffffffffffffffffffffffffffff1673ffffffffffffffffffffffffffffffffffffffff1673ffffffffffffffffffffffffffffffffffffffff168152602001908152602001600020600201549081150290604051600060405180830381858888f19350505050158015611383573d6000803e3d6000fd5b505b808061139090612b2a565b9150506110e0565b503073ffffffffffffffffffffffffffffffffffffffff167f353a1d99b303c63c35b3b6f821c12b7d2e8e025d15e8fbf4265cd62a81013021836040516113df9190612ab1565b60405180910390a26001606d546113f69190612c34565b606d8190555042606c819055505b5050565b6000603360009054906101000a900473ffffffffffffffffffffffffffffffffffffffff16905090565b606e60009054906101000a900473ffffffffffffffffffffffffffffffffffffffff1681565b61146133610961565b80156114825750606960008281526020019081526020016000206002015442105b61148b57600080fd5b60006069600083815260200190815260200160002090508060060160003373ffffffffffffffffffffffffffffffffffffffff1673ffffffffffffffffffffffffffffffffffffffff16815260200190815260200160002060009054906101000a900460ff16156114fb57600080fd5b60018160060160003373ffffffffffffffffffffffffffffffffffffffff1673ffffffffffffffffffffffffffffffffffffffff16815260200190815260200160002060006101000a81548160ff02191690831515021790555080600501600081548092919061156a90612b2a565b91905055505050565b60666020528060005260406000206000915090508060000154908060010154908060020154908060030154908060040154908060050154905086565b6115b7611c5b565b6040518060c0016040528087815260200186815260200185815260200184815260200183815260200182815250606660008973ffffffffffffffffffffffffffffffffffffffff1673ffffffffffffffffffffffffffffffffffffffff168152602001908152602001600020600082015181600001556020820151816001015560408201518160020155606082015181600301556080820151816004015560a0820151816005015590505050505050505050565b61167433610961565b80156116955750606b60008281526020019081526020016000206002015442105b61169e57600080fd5b6000606b600083815260200190815260200160002090508060060160003373ffffffffffffffffffffffffffffffffffffffff1673ffffffffffffffffffffffffffffffffffffffff16815260200190815260200160002060009054906101000a900460ff161561170e57600080fd5b60018160060160003373ffffffffffffffffffffffffffffffffffffffff1673ffffffffffffffffffffffffffffffffffffffff16815260200190815260200160002060006101000a81548160ff02191690831515021790555080600501600081548092919061177d90612b2a565b91905055505050565b61178e611c5b565b6000606660008973ffffffffffffffffffffffffffffffffffffffff1673ffffffffffffffffffffffffffffffffffffffff16815260200190815260200160002060030154111561180b576040517f45c167f400000000000000000000000000000000000000000000000000000000815260040160405180910390fd5b6040518060c0016040528087815260200186815260200185815260200184815260200183815260200182815250606660008973ffffffffffffffffffffffffffffffffffffffff1673ffffffffffffffffffffffffffffffffffffffff168152602001908152602001600020600082015181600001556020820151816001015560408201518160020155606082015181600301556080820151816004015560a082015181600501559050506067879080600181540180825580915050600190039060005260206000200160009091909190916101000a81548173ffffffffffffffffffffffffffffffffffffffff021916908373ffffffffffffffffffffffffffffffffffffffff16021790555050505050505050565b61192a611c5b565b600073ffffffffffffffffffffffffffffffffffffffff168173ffffffffffffffffffffffffffffffffffffffff16141561199a576040517f08c379a000000000000000000000000000000000000000000000000000000000815260040161199190612d30565b60405180910390fd5b6119a381611cd9565b50565b60008060019054906101000a900460ff161590508080156119d75750600160008054906101000a900460ff1660ff16105b80611a0457506119e630611d9f565b158015611a035750600160008054906101000a900460ff1660ff16145b5b611a43576040517f08c379a0000000000000000000000000000000000000000000000000000000008152600401611a3a90612dc2565b60405180910390fd5b60016000806101000a81548160ff021916908360ff1602179055508015611a80576001600060016101000a81548160ff0219169083151502179055505b611a88611dc2565b611a9183611922565b8160659080519060200190611aa7929190611eba565b5073e592427a0aece92de3edee1f18e0157c05861564606e60006101000a81548173ffffffffffffffffffffffffffffffffffffffff021916908373ffffffffffffffffffffffffffffffffffffffff16021790555042606c819055506000606d819055508015611b655760008060016101000a81548160ff0219169083151502179055507f7f26b83ff96e1f2b6a682f133852f6798a09c465da95921460cefb38474024986001604051611b5c9190612e2a565b60405180910390a15b505050565b606d5481565b611b78611c5b565b6000606b6000606a6000815480929190611b9190612b2a565b919050558152602001908152602001600020905085816000019080519060200190611bbd929190611eba565b5084816001019080519060200190611bd6929190611eba565b50838160020181905550828160030181905550818160040160006101000a81548173ffffffffffffffffffffffffffffffffffffffff021916908373ffffffffffffffffffffffffffffffffffffffff16021790555060008160040160146101000a81548160ff02191690831515021790555060008160050181905550505050505050565b611c63611e1b565b73ffffffffffffffffffffffffffffffffffffffff16611c81611408565b73ffffffffffffffffffffffffffffffffffffffff1614611cd7576040517f08c379a0000000000000000000000000000000000000000000000000000000008152600401611cce90612e91565b60405180910390fd5b565b6000603360009054906101000a900473ffffffffffffffffffffffffffffffffffffffff16905081603360006101000a81548173ffffffffffffffffffffffffffffffffffffffff021916908373ffffffffffffffffffffffffffffffffffffffff1602179055508173ffffffffffffffffffffffffffffffffffffffff168173ffffffffffffffffffffffffffffffffffffffff167f8be0079c531659141344cd1fd0a4f28419497f9722a3daafe3b4186f6b6457e060405160405180910390a35050565b6000808273ffffffffffffffffffffffffffffffffffffffff163b119050919050565b600060019054906101000a900460ff16611e11576040517f08c379a0000000000000000000000000000000000000000000000000000000008152600401611e0890612f23565b60405180910390fd5b611e19611e23565b565b600033905090565b600060019054906101000a900460ff16611e72576040517f08c379a0000000000000000000000000000000000000000000000000000000008152600401611e6990612f23565b60405180910390fd5b611e82611e7d611e1b565b611cd9565b565b6040518060c001604052806000815260200160008152602001600081526020016000815260200160008152602001600081525090565b828054611ec690612ba2565b90600052602060002090601f016020900481019282611ee85760008555611f2f565b82601f10611f0157805160ff1916838001178555611f2f565b82800160010185558215611f2f579182015b82811115611f2e578251825591602001919060010190611f13565b5b509050611f3c9190611f40565b5090565b5b80821115611f59576000816000905550600101611f41565b5090565b6000604051905090565b600080fd5b600080fd5b600080fd5b6000601f19601f8301169050919050565b7f4e487b7100000000000000000000000000000000000000000000000000000000600052604160045260246000fd5b611fbf82611f76565b810181811067ffffffffffffffff82111715611fde57611fdd611f87565b5b80604052505050565b6000611ff1611f5d565b9050611ffd8282611fb6565b919050565b600067ffffffffffffffff82111561201d5761201c611f87565b5b602082029050602081019050919050565b600080fd5b600073ffffffffffffffffffffffffffffffffffffffff82169050919050565b600061205e82612033565b9050919050565b61206e81612053565b811461207957600080fd5b50565b60008135905061208b81612065565b92915050565b60006120a461209f84612002565b611fe7565b905080838252602082019050602084028301858111156120c7576120c661202e565b5b835b818110156120f057806120dc888261207c565b8452602084019350506020810190506120c9565b5050509392505050565b600082601f83011261210f5761210e611f71565b5b813561211f848260208601612091565b91505092915050565b600067ffffffffffffffff82111561214357612142611f87565b5b602082029050602081019050919050565b6000819050919050565b61216781612154565b811461217257600080fd5b50565b6000813590506121848161215e565b92915050565b600061219d61219884612128565b611fe7565b905080838252602082019050602084028301858111156121c0576121bf61202e565b5b835b818110156121e957806121d58882612175565b8452602084019350506020810190506121c2565b5050509392505050565b600082601f83011261220857612207611f71565b5b813561221884826020860161218a565b91505092915050565b600080600080600080600060e0888a0312156122405761223f611f67565b5b600088013567ffffffffffffffff81111561225e5761225d611f6c565b5b61226a8a828b016120fa565b975050602088013567ffffffffffffffff81111561228b5761228a611f6c565b5b6122978a828b016121f3565b965050604088013567ffffffffffffffff8111156122b8576122b7611f6c565b5b6122c48a828b016121f3565b955050606088013567ffffffffffffffff8111156122e5576122e4611f6c565b5b6122f18a828b016121f3565b945050608088013567ffffffffffffffff81111561231257612311611f6c565b5b61231e8a828b016121f3565b93505060a088013567ffffffffffffffff81111561233f5761233e611f6c565b5b61234b8a828b016121f3565b92505060c088013567ffffffffffffffff81111561236c5761236b611f6c565b5b6123788a828b016121f3565b91505092959891949750929550565b600081519050919050565b600082825260208201905092915050565b60005b838110156123c15780820151818401526020810190506123a6565b838111156123d0576000848401525b50505050565b60006123e182612387565b6123eb8185612392565b93506123fb8185602086016123a3565b61240481611f76565b840191505092915050565b6000602082019050818103600083015261242981846123d6565b905092915050565b60006020828403121561244757612446611f67565b5b600061245584828501612175565b91505092915050565b60006020828403121561247457612473611f67565b5b60006124828482850161207c565b91505092915050565b60008115159050919050565b6124a08161248b565b82525050565b60006020820190506124bb6000830184612497565b92915050565b6124ca81612154565b82525050565b60c0820160008201516124e660008501826124c1565b5060208201516124f960208501826124c1565b50604082015161250c60408501826124c1565b50606082015161251f60608501826124c1565b50608082015161253260808501826124c1565b5060a082015161254560a08501826124c1565b50505050565b600060c08201905061256060008301846124d0565b92915050565b600081519050919050565b600082825260208201905092915050565b6000819050602082019050919050565b60c0820160008201516125a860008501826124c1565b5060208201516125bb60208501826124c1565b5060408201516125ce60408501826124c1565b5060608201516125e160608501826124c1565b5060808201516125f460808501826124c1565b5060a082015161260760a08501826124c1565b50505050565b60006126198383612592565b60c08301905092915050565b6000602082019050919050565b600061263d82612566565b6126478185612571565b935061265283612582565b8060005b8381101561268357815161266a888261260d565b975061267583612625565b925050600181019050612656565b5085935050505092915050565b600060208201905081810360008301526126aa8184612632565b905092915050565b600080fd5b600067ffffffffffffffff8211156126d2576126d1611f87565b5b6126db82611f76565b9050602081019050919050565b82818337600083830152505050565b600061270a612705846126b7565b611fe7565b905082815260208101848484011115612726576127256126b2565b5b6127318482856126e8565b509392505050565b600082601f83011261274e5761274d611f71565b5b813561275e8482602086016126f7565b91505092915050565b60006020828403121561277d5761277c611f67565b5b600082013567ffffffffffffffff81111561279b5761279a611f6c565b5b6127a784828501612739565b91505092915050565b600080600080600060a086880312156127cc576127cb611f67565b5b600086013567ffffffffffffffff8111156127ea576127e9611f6c565b5b6127f688828901612739565b955050602086013567ffffffffffffffff81111561281757612816611f6c565b5b61282388828901612739565b945050604061283488828901612175565b935050606061284588828901612175565b92505060806128568882890161207c565b9150509295509295909350565b600061286e82612033565b9050919050565b61287e81612863565b82525050565b60006020820190506128996000830184612875565b92915050565b6128a881612053565b82525050565b60006020820190506128c3600083018461289f565b92915050565b6000819050919050565b60006128ee6128e96128e484612033565b6128c9565b612033565b9050919050565b6000612900826128d3565b9050919050565b6000612912826128f5565b9050919050565b61292281612907565b82525050565b600060208201905061293d6000830184612919565b92915050565b61294c81612154565b82525050565b600060c0820190506129676000830189612943565b6129746020830188612943565b6129816040830187612943565b61298e6060830186612943565b61299b6080830185612943565b6129a860a0830184612943565b979650505050505050565b600080600080600080600060e0888a0312156129d2576129d1611f67565b5b60006129e08a828b0161207c565b97505060206129f18a828b01612175565b9650506040612a028a828b01612175565b9550506060612a138a828b01612175565b9450506080612a248a828b01612175565b93505060a0612a358a828b01612175565b92505060c0612a468a828b01612175565b91505092959891949750929550565b60008060408385031215612a6c57612a6b611f67565b5b6000612a7a8582860161207c565b925050602083013567ffffffffffffffff811115612a9b57612a9a611f6c565b5b612aa785828601612739565b9150509250929050565b6000602082019050612ac66000830184612943565b92915050565b7f4e487b7100000000000000000000000000000000000000000000000000000000600052603260045260246000fd5b7f4e487b7100000000000000000000000000000000000000000000000000000000600052601160045260246000fd5b6000612b3582612154565b91507fffffffffffffffffffffffffffffffffffffffffffffffffffffffffffffffff821415612b6857612b67612afb565b5b600182019050919050565b7f4e487b7100000000000000000000000000000000000000000000000000000000600052602260045260246000fd5b60006002820490506001821680612bba57607f821691505b60208210811415612bce57612bcd612b73565b5b50919050565b7f4e487b7100000000000000000000000000000000000000000000000000000000600052601260045260246000fd5b6000612c0e82612154565b9150612c1983612154565b925082612c2957612c28612bd4565b5b828204905092915050565b6000612c3f82612154565b9150612c4a83612154565b9250827fffffffffffffffffffffffffffffffffffffffffffffffffffffffffffffffff03821115612c7f57612c7e612afb565b5b828201905092915050565b6000612c9582612154565b9150612ca083612154565b925082821015612cb357612cb2612afb565b5b828203905092915050565b7f4f776e61626c653a206e6577206f776e657220697320746865207a65726f206160008201527f6464726573730000000000000000000000000000000000000000000000000000602082015250565b6000612d1a602683612392565b9150612d2582612cbe565b604082019050919050565b60006020820190508181036000830152612d4981612d0d565b9050919050565b7f496e697469616c697a61626c653a20636f6e747261637420697320616c72656160008201527f647920696e697469616c697a6564000000000000000000000000000000000000602082015250565b6000612dac602e83612392565b9150612db782612d50565b604082019050919050565b60006020820190508181036000830152612ddb81612d9f565b9050919050565b6000819050919050565b600060ff82169050919050565b6000612e14612e0f612e0a84612de2565b6128c9565b612dec565b9050919050565b612e2481612df9565b82525050565b6000602082019050612e3f6000830184612e1b565b92915050565b7f4f776e61626c653a2063616c6c6572206973206e6f7420746865206f776e6572600082015250565b6000612e7b602083612392565b9150612e8682612e45565b602082019050919050565b60006020820190508181036000830152612eaa81612e6e565b9050919050565b7f496e697469616c697a61626c653a20636f6e7472616374206973206e6f74206960008201527f6e697469616c697a696e67000000000000000000000000000000000000000000602082015250565b6000612f0d602b83612392565b9150612f1882612eb1565b604082019050919050565b60006020820190508181036000830152612f3c81612f00565b905091905056fea2646970667358221220f19be3fe07952aa7876c07a69c9c234988e544a8ef0feff26468b3fba9f7090b64736f6c63430008090033",
  "linkReferences": {},
  "deployedLinkReferences": {}
}